:020000020000FC
:0C0000000C9400010C942D010C943101B3
:04002C000C941F0110
:040A000021220C148F
:1002000008E00EBF0FE50DBF0FEF04BB929A939A63
:1002100090E070E080E060E15AE0E0E0FAE000ECBD
:100220000BBF0FE005BF0CE002BF05E003BF01E01C
:1002300009BF7894E0E0E80F949195BBFBCF7395EC
:10024000751739F0761741F40E943C010E94350180
:1002500018950E9435011895189580E00E943C0180
:10026000189582E00E943C011895839524E0281798
:1002700009F0089580E0089570E00CE002BF089551
:00000001FF
